S0190000696E7465726D6564696174655F6E6F64652E737265630B
S11300000C94C9000C94E6000C94E6000C94E600F1
S11300100C94E6000C94E6000C94E6000C94E600C4
S11300200C949C010C94E6000C94E6000C94FD00E6
S11300300C94E6000C942D010C94E6000C94E6005C
S11300400C94E6000C94E6000C94E6000C94E60094
S11300500C94E6006E616E00696E660000407A10D2
S1130060F35A00A0724E18090010A5D4E80000E865
S11300707648170000E40B54020000CA9A3B0000C3
S113008000E1F505000080969800000040420F0052
S11300900000A08601000000102700000000E80313
S11300A0000000006400000000000A0000000000DE
S11300B00100000000002C76D888DC674F0823DF9D
S11300C0C1DFAE59E1B1B796E5E3E453C63AE65170
S11300D0997696E8E6C28426EB898C9B62ED407C97
S11300E06FFCEFBC9C9F40F2BAA56FA5F490055A33
S11300F02AF75C936B6CF9676DC11BFCE0E40D4758
S1130100FEF520E6B500D0ED902E0300943577057A
S11301100080841E080000204E0A000000C80C3332
S11301203333330F986E12831141EF8D2114893BC1
S1130130E65516CFFEE6DB18D1844B381BF77C1D41
S1130140901DA4BBE424203284725E228100C9F194
S113015024ECA1E53D274E414E494E495459494EA0
S113016046CDCCCC3D0AD7233C17B7D13877CC2B1E
S1130170329595E6241FB14F0A000020410000C8C3
S11301804200401C4620BCBE4CCA1B0E5AAEC59D44
S1130190740011241FBECFE5D4E0DEBFCDBF12E052
S11301A0A0E6B0E0EAEBFAE102C005900D92A437B4
S11301B0B107D9F724E0A4E7B2E001C01D92A3314E
S11301C0B207E1F70E94FD030C945B0D0C94000050
S11301D0E091770280917602E81769F091E09E0F32
S11301E090937702F0E0EA5FFC4F8081992324F436
S11301F010927702089580E008951F920F920FB62F
S11302000F9211248F939F93EF93FF93E0917602C3
S113021081E08E0F80937602F0E09CB1EA5FFC4FA0
S11302209083882314F410927602FF91EF919F91AA
S11302308F910F900FBE0F901F901895E09174024C
S113024091E09E0F90937402F0E0EA57FC4F808394
S1130250992314F41092740208951F920F920FB60A
S11302600F9211248F93EF93FF93E0917502809185
S11302707402E81749F081E08E0F80937502F0E074
S1130280EA57FC4F80818CB980917502882314F45D
S113029010927502FF91EF918F910F900FBE0F9006
S11302A01F9018951F93CF93DF93EC0110E007C0C4
S11302B0FE01E80FF91F80810E941E011F5F812F3C
S11302C090E0FE0101900020E9F73197EC1BFD0B53
S11302D08E179F0768F35D991CB8DF91CF911F912A
S11302E008950F931F93CF93DF938C010E945201C3
S11302F00E94E80011C0863469F404C00E94E8003A
S1130300219602C0C0E0D0E0C530D105BCF3C801DD
S11303100E9452010E94E800833569F7C0E0D0E0F2
S113032003C00E94E8002196C830D105D4F3DF91C0
S1130330CF911F910F9108951F920F920FB60F92B4
S113034011248F929F92AF92BF92CF92DF92EF923D
S1130350FF920F931F932F933F934F935F936F934A
S11303607F938F939F93AF93BF93CF93DF93EF9339
S1130370FF938091080481111DC2C12CD12CC0E0CF
S1130380D0E002C1DF92CF9280E690E09F938F93FA
S113039084E892E09F938F930E94260B84E892E076
S11303A00E94710180E2E9E7F0E0A4E8B2E0019084
S11303B00D928A95E1F784E892E00E94710189E246
S11303C0E9E9F0E0A4E8B2E001900D928A95E1F742
S11303D084E892E00E94710187E2E2ECF0E0A4E894
S11303E0B2E001900D928A95E1F784E892E00E94D0
S11303F071018DE0E9EEF0E0A4E8B2E001900D9225
S11304008A95E1F784E892E00E94710184E1E6EFC5
S1130410F0E0A4E8B2E001900D928A95E1F784E857
S113042092E00E94710182E1EAE0F1E0A4E8B2E026
S113043001900D928A95E1F784E892E00E945201BE
S11304400F900F900F900F900F900F900E94E80064
S11304508232E1F70E94E800863411F010E00CC00B
S113046011E00AC07E019FEFE91AF90AC75FDB4F6A
S113047088830E94E800E701823211F0112391F38E
S11304800E94E80011112EC025E030E00CC0F901F3
S1130490E81BF90BE75FFB4F8081F901E75FFB4F36
S11304A080832150310986E090E08C1B9D0B281736
S11304B039076CF720E030E007C0F901E75FFB4F34
S11304C040E340832F5F3F4F28173907B4F389E097
S11304D094E00E94D609F601EE0FFF1FE458FD4F89
S11304E0918380830E94E800823211F01123D1F3BA
S11304F00E94E800863461F411E00AC07E01EFEF47
S1130500EE1AFE0AC75FDB4F88830E94E800E7010A
S1130510823211F0112391F30E94E800111131C0CD
S113052025E030E00CC0F901E81BF90BE75FFB4F55
S11305308081F901E75FFB4F80832150310986E018
S113054090E08C1B9D0B281739076CF720E030E0F6
S113055007C0F901E75FFB4F40E340832F5F3F4F44
S113056028173907B4F389E094E00E94D209860180
S1130570000F111F0A5F1B4F0E94ED04F8017183E5
S11305806083FFEFCF1ADF0A1C141D040CF0FACEAF
S1130590109278021092790210927A0210927B02E1
S11305A01092050310920403C0E0D0E032C0CE01E3
S11305B0880F991FFC01E458FD4F2081318140913F
S11305C0040350910503240F351F30930503209332
S11305D00403FC01EA5FFB4F60817181072E000C6C
S11305E0880B990B0E9425059B01AC016091780250
S11305F07091790280917A0290917B020E94810429
S1130600609378027093790280937A0290937B02CC
S113061021961C161D065CF6E0900403F090050379
S11306208090780290907902A0907A02B0907B0238
S1130630C0E0D0E042C0CE01880F991FFC01E4580D
S1130640FD4F208131812E193F09229FA001239F54
S1130650500D500D112420917E0230917F02240F01
S1130660351F30937F0220937E02FC01EA5FFB4F2B
S113067060817181072E000C880B990B0E9425055F
S1130680A50194010E9480049B01AC010E94B10564
S11306909B01AC0160918002709181028091820281
S11306A0909183020E94810460938002709381027E
S11306B0809382029093830221961C161D060CF0EF
S11306C0BACF6091800270918102809182029091F0
S11306D083020E94ED047093100460930F04C4E835
S11306E0D2E08AE1ECE1F1E0DE0101900D928A951D
S11306F0E1F7CE010E947101809105038F938091EF
S113070004038F9386E391E09F938F93DF93CF93BA
S11307100E94260BCE010E94710180917B028F936F
S113072080917A028F93809179028F9380917802DD
S11307308F9387E591E09F938F93DF93CF930E94EC
S1130740260BCE010E94710180917F028F938091CC
S11307507E028F9388E791E09F938F93DF93CF93EB
S11307600E94260BCE010E947101809110048F9388
S113077080910F048F9389E991E09F938F93DF9386
S1130780CF930E94260BCE010E9471018DE0E8EB0D
S1130790F1E0DE0101900D928A95E1F7CE010E940D
S11307A071018DB79EB74A960FB6F8949EBF0FBEDF
S11307B08DBF02C0109208048CED9BE09DBD8CBDE2
S11307C0FF91EF91DF91CF91BF91AF919F918F9165
S11307D07F916F915F914F913F912F911F910F9155
S11307E0FF90EF90DF90CF90BF90AF909F908F904D
S11307F00F900FBE0F901F90189581E080BD92E678
S113080099B98093080488ED8AB986E080BD80E0B8
S113081090E00EC09C01220F331FF901E458FD4FF4
S113082011821082F901EA5FFB4F11821082019656
S1130830181619067CF78DE0E5ECF1E0A4E8B2E0C7
S113084001900D928A95E1F784E892E00E9471018B
S11308508EE1E2EDF1E0A4E8B2E001900D928A9518
S1130860E1F784E892E00E9471018CE1E0EFF1E0AD
S1130870A4E8B2E001900D928A95E1F784E892E051
S11308800E9471018BE1ECE0F2E0A4E8B2E0019097
S11308900D928A95E1F784E892E00E94710189E162
S11308A0E7E2F2E0A4E8B2E001900D928A95E1F764
S11308B084E892E00E9471018BE1E0E4F2E0A4E8B4
S11308C0B2E001900D928A95E1F784E892E00E94EB
S11308D0710189E1EBE5F2E0A4E8B2E001900D9248
S11308E08A95E1F784E892E00E94710185E08EBD6B
S11308F08CED9BE09DBD8CBD84E089BF7894FFCFD7
S11309005058BB27AA270E9498040C9477050E948C
S1130910690538F00E94700520F039F49F3F19F4FE
S113092026F40C9466050EF4E095E7FB0C94600540
S1130930E92F0E94880558F3BA17620773078407E2
S1130940950720F079F4A6F50C94AA050EF4E09529
S11309500B2EBA2FA02D0B01B90190010C01CA0175
S1130960A0011124FF27591B99F0593F50F4503E20
S113097068F11A16F040A22F232F342F4427585F12
S1130980F3CF469537952795A795F0405395C9F72A
S11309907EF41F16BA0B620B730B840BBAF09150E2
S11309A0A1F0FF0FBB1F661F771F881FC2F70EC081
S11309B0BA0F621F731F841F48F487957795679554
S11309C0B795F7959E3F08F0B0CF9395880F08F040
S11309D09927EE0F9795879508950E94F4046894DB
S11309E0B1110C94AB0508950E94900588F09F57AF
S11309F098F0B92F9927B751B0F0E1F0660F771F3F
S1130A00881F991F1AF0BA95C9F714C0B13091F034
S1130A100E94AA05B1E008950C94AA05672F782FC7
S1130A208827B85F39F0B93FCCF3869577956795F9
S1130A30B395D9F73EF490958095709561957F4F65
S1130A408F4F9F4F0895E89409C097FB3EF490950B
S1130A508095709561957F4F8F4F9F4F9923A9F093
S1130A60F92F96E9BB279395F69587957795679522
S1130A70B795F111F8CFFAF4BB0F11F460FF1BC066
S1130A806F5F7F4F8F4F9F4F16C0882311F096E9F9
S1130A9011C0772321F09EE8872F762F05C06623A7
S1130AA071F096E8862F70E060E02AF09A95660F60
S1130AB0771F881FDAF7880F9695879597F9089519
S1130AC097F99F6780E870E060E008959FEF80ECFD
S1130AD0089500240A9416161706180609060895A0
S1130AE000240A9412161306140605060895092E06
S1130AF00394000C11F4882352F0BB0F40F4BF2B75
S1130B0011F460FF04C06F5F7F4F8F4F9F4F0895B4
S1130B1057FD9058440F551F59F05F3F71F04795AA
S1130B20880F97FB991F61F09F3F79F0879508958F
S1130B30121613061406551FF2CF4695F1DF08C0AE
S1130B40161617061806991FF1CF869571056105CB
S1130B5008940895E894BB2766277727CB0197F973
S1130B6008950E94C4050C9477050E94690538F025
S1130B700E94700520F0952311F00C9460050C94EC
S1130B80660511240C94AB050E94880570F3959FAB
S1130B90C1F3950F50E0551F629FF001729FBB2770
S1130BA0F00DB11D639FAA27F00DB11DAA1F649F0C
S1130BB06627B00DA11D661F829F2227B00DA11DBF
S1130BC0621F739FB00DA11D621F839FA00D611D45
S1130BD0221F749F3327A00D611D231F849F600D66
S1130BE0211D822F762F6A2F11249F5750409AF08F
S1130BF0F1F088234AF0EE0FFF1FBB1F661F771F1B
S1130C00881F91505040A9F79E3F510580F00C94E5
S1130C1060050C94AB055F3FE4F3983ED4F38695EE
S1130C2077956795B795F795E7959F5FC1F7FE2B85
S1130C30880F911D9695879597F90895A0E1B0E0E6
S1130C40E4E2F6E00C949B097C011B016A01FC01BF
S1130C5017821682838181FF44C39E012F5F3F4F19
S1130C603901F7019381F10193FD859193FF8191FE
S1130C701F01882309F431C3853239F493FD85912A
S1130C8093FF81911F01853239F4B70190E00E94EE
S1130C90EA0A56016501E5CF10E0512C912CFFE1E1
S1130CA0F915D8F08B3279F038F4803279F0833248
S1130CB0A1F4F92DF0612EC08D3261F0803369F416
S1130CC0292D21602DC0392D3260932E892D846009
S1130CD0982E2AC0E92DE86015C097FC2DC020EDA0
S1130CE0280F2A3088F496FE06C03AE0139F200DA0
S1130CF01124122F19C08AE0589E200D1124522E5F
S1130D00E92DE0629E2E10C08E3231F496FCE5C2CD
S1130D10F92DF0649F2E08C08C3621F4292D20680B
S1130D20922E02C0883641F4F10193FD859193FF20
S1130D3081911F018111B3CF9BEB980F933020F465
S1130D40992D9061805E07C09BE9980F933008F05D
S1130D5066C1992D9F7E96FF16E09F73992E853666
S1130D6019F49064992E08C0863621F4392F30681E
S1130D70932E02C01111115097FE07C01C3350F47A
S1130D8044244394410E27E00BC0183038F027E088
S1130D9017E005C027E09CE3492E02C0212F412C17
S1130DA0560184E0A80EB11CF60160817181828134
S1130DB09381042DA3010E94F4096C01F981FC873D
S1130DC0F0FF02C0F3FF06C091FC06C092FE06C00D
S1130DD000E205C00DE203C00BE201C000E08C8517
S1130DE08C7019F001115AC29BC297FE10C04C0CB2
S1130DF0FC85F4FF04C08A81813309F44A941414F5
S1130E0074F528E0241578F588E0482E2CC096FC6B
S1130E102AC0812F90E08C159D059CF03CEFC316F1
S1130E203FEFD30674F0892D8068982E0AC0E2E063
S1130E30F0E0EC0FFD1FE10FF11D8081803319F408
S1130E4011501111F4CF97FE0EC044244394410E67
S1130E50812F90E0C816D9062CF41C1904C0442430
S1130E60439401C010E097FE06C01C141D0434F422
S1130E70C601019605C085E090E002C081E090E0E3
S1130E8001110196112331F0212F30E02F5F3F4FE4
S1130E90820F931F252D30E08217930714F4581AFC
S1130EA001C0512C892D897049F4552039F0B701BE
S1130EB080E290E00E94EA0A5A94F7CF002329F0D6
S1130EC0B701802F90E00E94EA0A93FC09C05520E4
S1130ED039F0B70180E390E00E94EA0A5A94F7CF10
S1130EE097FE4CC04601D7FE02C0812C912CC6014E
S1130EF088199909F301E80FF91FFE87ED87960118
S1130F0024193109388B2F87012F10E01195019591
S1130F1011093FEF8316930629F4B7018EE290E09E
S1130F200E94EA0AC814D9044CF08F859889881560
S1130F30990524F4ED85FE85818101C080E3F1E00B
S1130F408F1A91082D853E852F5F3F4F3E872D8751
S1130F50801691062CF0B70190E00E94EA0AD9CFDE
S1130F60C814D90441F49A81963320F4953319F4C2
S1130F703C8534FF81E3B70190E04EC08A81813320
S1130F8019F09C859F7E9C87B70190E00E94EA0A35
S1130F90111105C094FC18C085E690E017C0B70194
S1130FA08EE290E00E94EA0A1E5F82E001E0080FF0
S1130FB0F301E80FF11D8081B70190E00E94EA0A75
S1130FC0802F0113F3CFE6CF85E490E0B7010E94B0
S1130FD0EA0AD7FC06C0C114D10441F4EC85E4FF4D
S1130FE005C0D194C194D1088DE201C08BE2B70150
S1130FF090E00E94EA0A80E32AE0C216D1042CF0B1
S11310008F5FFAE0CF1AD108F7CFB70190E00E94C2
S1131010EA0AB701C601C0960E94EA0A54C183369F
S113102031F0833779F0833509F056C020C056017A
S113103032E0A30EB11CF6018081898301E010E047
S1131040630112C05601F2E0AF0EB11CF601C0807C
S1131050D18096FE03C0612F70E002C06FEF7FEF76
S1131060C6010E94D70A8C01F92DFF7714C05601DE
S113107022E0A20EB11CF601C080D18096FE03C00E
S1131080612F70E002C06FEF7FEFC6010E94CC0AAF
S11310908C01F92DF0689F2EF3FD1AC0852D90E088
S11310A008171907A8F4B70180E290E00E94EA0A41
S11310B05A94F4CFF60197FC859197FE81916F01C4
S11310C0B70190E00E94EA0A51105A9401501109A4
S11310D00115110579F7F7C0843611F0893661F5E9
S11310E0560197FE09C024E0A20EB11CF6016081EE
S11310F07181828193810AC0F2E0AF0EB11CF601C6
S113110060817181072E000C880B990BF92DFF76F5
S11311109F2E97FF09C090958095709561957F4F9C
S11311208F4F9F4FF0689F2E2AE030E0A3010E946A
S1131130480BC82EC6183FC0092D853721F40F7EF1
S11311402AE030E01DC0097F8F3691F018F488350D
S113115059F0C3C0803719F0883711F0BEC0006160
S113116004FF09C0046007C094FE08C0066006C0FE
S113117028E030E005C020E130E002C020E132E0A8
S1131180560107FF09C084E0A80EB11CF601608176
S113119071818281938108C0F2E0AF0EB11CF60127
S11311A06081718180E090E0A3010E94480BC82E09
S11311B0C6180F77902E96FE0BC0092D0E7FC11610
S11311C050F494FE0AC092FC08C0092D0E7E05C09E
S11311D0DC2C092D03C0DC2C01C0D12E04FF0DC072
S11311E0FE01EC0DF11D8081803311F4097E09C0EC
S11311F002FF06C0D394D39404C0802F867809F0EC
S1131200D39403FD11C000FF06C01C2DD51480F437
S1131210150D1D190DC0D51458F4B70180E290E0E6
S11312200E94EA0AD394F7CFD51410F45D1801C0D4
S1131230512C04FF10C0B70180E390E00E94EA0A39
S113124002FF17C001FD03C088E790E002C088E5F3
S113125090E0B7010CC0802F867859F001FF02C0DE
S11312608BE201C080E207FD8DE2B70190E00E94AD
S1131270EA0AC11638F4B70180E390E00E94EA0A52
S11312801150F7CFCA94F301EC0DF11D8081B70121
S113129090E00E94EA0AC110F5CF15C0F4E0F515FC
S11312A060F584E0581A93FE1FC0011127C02C85F5
S11312B023FF2AC004E510E0392D3071932EF80184
S11312C08491811124C0552009F4E4CCB70180E253
S11312D090E00E94EA0A5A94F6CFF701868197813A
S11312E026C08FEF9FEF23C0B70180E290E00E94F9
S11312F0EA0A5A945110F8CFD8CF512CB701802F55
S113130090E00E94EA0AD3CF08E510E0D5CF91100F
S11313108052B70190E00E94EA0A0F5F1F4FCFCFBF
S113132023E0251510F483E0BDCF512CC0CF609687
S1131330E2E10C94B7092F923F924F925F926F9221
S11313407F928F929F92AF92BF92CF92DF92EF9251
S1131350FF920F931F93CF93DF93CDB7DEB7CA1BD2
S1131360DB0B0FB6F894DEBF0FBECDBF09942A88FD
S1131370398848885F846E847D848C849B84AA84A5
S1131380B984C884DF80EE80FD800C811B81AA8132
S1131390B981CE0FD11D0FB6F894DEBF0FBECDBFFD
S11313A0ED010895662777270C94A60BFC01882786
S11313B09927E89421912032E9F3293010F02E3056
S11313C0C8F32B3241F02D3239F4689404C00E94E2
S11313D0E20A820F911D219120532A30C0F31EF49A
S11313E0909581959F4F0895283008F027E0332782
S11313F0DA01990F311D87FD916000966105710531
S113140039F432602E5F3D9330E32A95E1F7089575
S11314109F3F30F080387105610509F03C5F3C5F07
S11314203D93913008F08068911DDF93CF931F9313
S11314300F93FF92EF92192F987F9695E92F969527
S11314409695E90FFF27EA54FF4F99273327EE2497
S1131450FF24A701E70105900894079428F4360FA8
S1131460E71EF81E491F511D660F771F881F991F1D
S11314700694A1F70590079428F4E70EF81E491F77
S1131480561FC11D770F881F991F661F0694A1F769
S11314900590079428F4F80E491F561FC71FD11D45
S11314A0880F991F661F771F0694A1F7059007946C
S11314B020F4490F561FC71FD81F990F661F771FA7
S11314C0881F0694A9F784911095177041F0D6955A
S11314D0C79557954795F794E7941A95C1F7ECE5A6
S11314E0F0E068941590159135916591959105906A
S11314F07FE27395E118F10A430B560BC90BD0092F
S1131500C0F7E10CF11E431F561FC91FD01D7EF406
S1131510703311F48A95E6CFE894015030F0080F47
S11315200AF40027021708F4202F2395022F7A3398
S113153028F079E37D932A95E9F710C07D932A95E5
S113154089F6069497956795379517951794E1183A
S1131550F10A430B560BC90BD00998F023957E91E1
S113156073957A3308F070E37C932013B8F77E9177
S113157070617D9330F0839571E37D9370E32A95D8
S1131580E1F71124EF90FF900F911F91CF91DF911C
S1131590992787FD90950895FC010590615070404E
S11315A00110D8F7809590958E0F9F1F0895FC0128
S11315B06150704001900110D8F7809590958E0F7E
S11315C09F1F08957AE0979F902D879F802D910DFE
S11315D0112408950F931F93CF93DF93FB0123816D
S11315E021FD03C08FEF9FEF2CC022FF16C0468160
S11315F05781248135814217530744F4A081B18176
S11316009D012F5F3F4F318320838C932681378147
S11316102F5F3F4F3783268314C08B01EC01FB01FE
S11316200084F185E02D0995892BE1F6D801169601
S11316308D919C911797019617969C938E9316976C
S1131640CE01DF91CF911F910F910895AEE0B0E0EC
S1131650ECE2FBE00C94A9090D891E8986E08C83D9
S11316601A8309838FEF9FE79E838D83AE01475EC4
S11316705F4F6F89788DCE0101960E941E06EF811F
S1131680F885E00FF11F10822E96E4E00C94C50952
S1131690FA01AA27283051F1203181F1E8946F939F
S11316A06E7F6E5F7F4F8F4F9F4FAF4FB1E03ED045
S11316B0B4E03CD0670F781F891F9A1FA11D680FE3
S11316C0791F8A1F911DA11D6A0F711D811D911D16
S11316D0A11D20D009F468943F912AE0269F11248B
S11316E03019305D3193DEF6CF010895462F4770EF
S11316F0405D4193B3E00FD0C9F7F6CF462F4F704A
S1131700405D4A3318F0495D31FD4052419302D0A7
S1131710A9F7EACFB4E0A69597958795779567954D
S1131720BA95C9F700976105710508959B01AC014D
S11317300A2E06945795479537952795BA95C9F774
S1131740620F731F841F951FA01D0895A0E0B0E0D1
S1131750ECEAFBE00C94A109EC016B016115710545
S113176019F0FB01918380837E01FFEFEF1AFF0ADA
S11317700881802F90E00E94F40C892B11F0E7017E
S1131780F3CF0D3239F47E0182E0E80EF11C0981B9
S113179011E008C00B3229F47E0192E0E90EF11C3D
S11317A0098110E0E701219743E050E06EE571E024
S11317B0CE010E94FD0C892BC1F4239645E050E034
S11317C069E571E0CE010E94FD0C892B09F4259690
S11317D0C114D10419F0F601D183C0831111F6C0EC
S11317E060E070E080E89FE7FAC043E050E066E51F
S11317F071E0CE010E94FD0C892B59F4C114D1046F
S113180009F4E9C0F2E0EF0EF11CF601F182E08286
S1131810E2C020E030E0A901C0E0D0E0F70180EDB3
S1131820A82EA00E89E08A1530F1912F9260B92E6E
S1131830812F887012FF04C0811124C0219622C018
S113184081112197A5E0B0E00E94410DDC01CB019C
S1131850880F991FAA1FBB1F9C01AD012A0D311DC2
S1131860411D511D283989E93807480789E158077E
S113187048F0166006C09EEFA9120AC013FD40C0CE
S11318801860B12E8FEFE81AF80A00811B2DC6CF1D
S1131890802F8F7D8534A1F580818D3211F4106104
S11318A006C08B3221F0319661E070E004C0818182
S11318B0329662E070E080538A3018F0E61BF70B32
S11318C01FC060E070E060389CE079075CF4DB01E5
S11318D0AA0FBB1FAA0FBB1F6A0F7B1F660F771FC0
S11318E0680F711D3196DF0111978C9180538A30F6
S11318F050F314FF03C0719561957109C60FD71F8A
S113190011FF08C0C114D10429F0CF010197F601D9
S113191091838083CA01B9010E942305212F23707A
S1131920233019F04B015C0106C04B015C01B7FA8E
S1131930B094B7F8B09420E030E0A901C501B40137
S11319400E94150D882309F43EC0D7FF06C0D19527
S1131950C195D10905E711E002C00DE811E0680165
S1131960F8E1CF1AD10890E2E92EF12CCE15DF056B
S113197074F0F8012591359145915491C501B40154
S11319800E94B1054B015C01CE19DF09EFCF045071
S11319901109F594E7940C151D0541F78A2D880F5C
S11319A08B2D881F8F3F49F020E030E0A901C5014D
S11319B0B4010E94150D811106C082E290E090935B
S11319C0120480931104C501B40109C060E070E001
S11319D080E89FEF04C060E070E080EC9FE7CDB743
S11319E0DEB7ECE00C94BD0991110C943E0D8032ED
S11319F019F089508550C8F70895FB01DC01415066
S1131A00504088F08D9181341CF08B350CF4805E4D
S1131A10659161341CF06B350CF4605E861B6111BA
S1131A2071F3990B0895881BFCCF0E941A0D08F4DA
S1131A3081E00895990F0008550FAA0BE0E8FEEF26
S1131A4016161706E807F907C0F012161306E4077E
S1131A50F50798F0621B730B840B950B39F40A2677
S1131A6061F0232B242B252B21F408950A2609F455
S1131A70A140A6958FEF811D811D08959927882780
S1131A8008950E944C0DA59F900DB49F900DA49FA6
S1131A90800D911D11240895A29FB001B39FC00130
S1131AA0A39F700D811D1124911DB29F700D811D86
S10D1AB01124911D0895F894FFCF4E
S1131ABA4553503A737369643A2253656E735F42AD
S1131ACA6F6172642564220A004553503A70617347
S1131ADA73776F72643A22617765736F6D655061CB
S1131AEA7373776F7264220A004553503A73656EB2
S1131AFA736F7256616C75653A224D6F6973745FC0
S1131B0A53656E736F72225B726571756573745D6A
S1131B1A0A004553503A73656E736F7256616C7559
S1131B2A653A22546D705F53656E736F72225B72ED
S1131B3A6571756573745D0A004553503A636F6E37
S1131B4A6E6563740A004553503A636C69656E7432
S1131B5A5472616E736D69740A004553503A67652D
S1131B6A74416C6C56616C7565730A004553503A3E
S1131B7A737369643A224D6964646C655F426F6188
S1131B8A726431220A004553503A73656E736F7258
S1131B9A56616C75653A224D6F6973745F61766735
S1131BAA225B25645D0A004553503A73656E736F70
S1131BBA7256616C75653A22546D705F617667225C
S1131BCA5B252E31665D0A004553503A73656E7380
S1131BDA6F7256616C75653A224D6F6973745F76DC
S1131BEA6172225B25645D0A004553503A73656E3F
S1131BFA736F7256616C75653A22546D705F7661C3
S1131C0A72225B25645D0A004553503A415053746D
S1131C1A6172740A004553503A726573746172743E
S1131C2A0A004553503A61646453656E736F723A9D
S1131C3A224D6F6973745F53656E736F72220A0063
S1131C4A4553503A61646453656E736F723A225411
S1131C5A6D705F53656E736F72220A004553503A72
S1131C6A61646453656E736F723A224D6F6973745B
S1131C7A5F617667220A004553503A61646453658A
S1131C8A6E736F723A22546D705F617667220A002E
S1131C9A4553503A61646453656E736F723A224DC8
S1131CAA6F6973745F766172220A004553503A6110
S1131CBA646453656E736F723A22546D705F766111
S1071CCA72220A0074
S9030000FC
