S0190000696E7465726D6564696174655F6E6F64652E737265630B
S11300000C94C9000C94E6000C94E6000C94E600F1
S11300100C94E6000C94E6000C94E6000C94E600C4
S11300200C94DF010C94E6000C94E6000C94E600BA
S11300300C94E6000C94E6000C94E6000C94E600A4
S11300400C94E6000C94E6000C94E6000C94E60094
S11300500C94E6006E616E00696E660000407A10D2
S1130060F35A00A0724E18090010A5D4E80000E865
S11300707648170000E40B54020000CA9A3B0000C3
S113008000E1F505000080969800000040420F0052
S11300900000A08601000000102700000000E80313
S11300A0000000006400000000000A0000000000DE
S11300B00100000000002C76D888DC674F0823DF9D
S11300C0C1DFAE59E1B1B796E5E3E453C63AE65170
S11300D0997696E8E6C28426EB898C9B62ED407C97
S11300E06FFCEFBC9C9F40F2BAA56FA5F490055A33
S11300F02AF75C936B6CF9676DC11BFCE0E40D4758
S1130100FEF520E6B500D0ED902E0300943577057A
S11301100080841E080000204E0A000000C80C3332
S11301203333330F986E12831141EF8D2114893BC1
S1130130E65516CFFEE6DB18D1844B381BF77C1D41
S1130140901DA4BBE424203284725E228100C9F194
S113015024ECA1E53D274E414E494E495459494EA0
S113016046CDCCCC3D0AD7233C17B7D13877CC2B1E
S1130170329595E6241FB14F0A000020410000C8C3
S11301804200401C4620BCBE4CCA1B0E5AAEC59D44
S1130190740011241FBECFE5D4E0DEBFCDBF12E052
S11301A0A0E6B0E0EAE2FCE102C005900D92AE3AAE
S11301B0B107D9F723E0AEEAB2E001C01D92A93C31
S11301C0B207E1F70E949C040C94130E0C940000F7
S11301D08F939F9388E290E06DD080E382BB939AE3
S11301E0939887E290E070D08F939F9388EE93E08A
S11301F06BD09F918F9180E382BB939A939887E20F
S113020090E062D08F939F9388EE93E05DD09F91AE
S11302108F9180E282BB939A939887E290E054D0C6
S11302208F939F9388EE93E04FD09F918F9188E2B4
S11302300FD08CE00DD081E00BD08AEF95E044D054
S113024086E006D09F918F91089581E001D00895B2
S11302508F939F93929806D087E290E035D09F9138
S11302608F9108958F939F9380E797E12DD09F916D
S11302708F918F9390B39F70807F890F82BB939AE5
S113028093988F939F9380E797E11ED09F918F91CE
S11302908F918295807F890F82BB939A939808955A
S11302A08F939F93929ADEDF8BE290E00DD09F9123
S11302B08F9108958F939F9386EE93E005D09F913D
S11302C08F910197B9F7089501970000000000008D
S11302D00000D1F70895E4DF08951F93CF93DF93CF
S11302E0EC0110E007C0FE01E80FF91F80810E94B5
S11302F06B011F5F812F90E0FE0101900020E9F760
S11303003197EC1BFD0B8E179F0768F3DF91CF919C
S11303101F9108951BB828E12AB990BD89B986E8D0
S113032080BD08955D9BFECF8CB908955F9BFECF81
S11303308CB1089584E690E00E945A0102C00E94A4
S113034096015F99FCCF08951F93CF93DF93EC013F
S113035010E007C0FE01E80FF91F80810E9492019E
S11303601F5F812F90E0FE0101900020E9F7319793
S1130370EC1BFD0B8E179F0768F3DF91CF911F9144
S11303800895CF93DF93EC010E94A4010E9496018B
S11303900CC0863441F402C00E9496015F99FCCFE0
S11303A0CE010E94A4010E949601833591F702C0F8
S11303B00E9496015F99FCCFDF91CF9108951F921F
S11303C00F920FB60F921124CF92DF92EF92FF9209
S11303D00F931F932F933F934F935F936F937F9349
S11303E08F939F93AF93BF93CF93DF93EF93FF9339
S11303F0F8948091BE0381117FC2EE24E394F12C22
S113040023C1FF92EF9280E690E09F938F938AEB53
S113041092E09F938F930E94DE0B8AEB92E00E94FE
S1130420C10180E2E9E7F0E0AAEBB2E001900D92AD
S11304308A95E1F78AEB92E00E94C10188B3809526
S113044088BB89E2E9E9F0E0AAEBB2E001900D9201
S11304508A95E1F78AEB92E00E94C10187E2E2EC1F
S1130460F0E0AAEBB2E001900D928A95E1F78AEBF5
S113047092E00E94C1010E949A0181E088BB8DE054
S1130480E9EEF0E0AAEBB2E001900D928A95E1F773
S11304908AEB92E00E94C10182E088BB84E1E6EF2E
S11304A0F0E0AAEBB2E001900D928A95E1F78AEBB5
S11304B092E00E94C10184E088BB0E949A018DE110
S11304C0EAE0F1E0AAEBB2E001900D928A95E1F73F
S11304D08AEB92E00E94A4010F900F900F900F906E
S11304E00F900F900E9496018232E1F70E949601CC
S11304F0863411F0D12C02C0DD24D394C0E0D0E0C6
S113050009C08E010F5F1F4FC154DC4F88830E94C6
S11305109601E801823211F0DD2099F30E949601E0
S1130520D1102FC025E030E00CC0F901E81BF90B15
S1130530E154FC4F8081F901E154FC4F8083215048
S1130540310986E090E08C1B9D0B281739076CF766
S113055020E030E007C0F901E154FC4F40E3408360
S11305602F5F3F4F28173907B4F38FEB93E00E94B6
S11305708E0AF7013197EE0FFF1FEE54FD4F918362
S113058080830E949A018BE1E7E2F1E0AAEBB2E0FA
S113059001900D928A95E1F78AEB92E00E94A40102
S11305A00E949601823211F0DD20D1F30E9496015F
S11305B0863411F4DD24D394C0E0D0E009C08E0168
S11305C00F5F1F4FC154DC4F88830E949601E801DE
S11305D0823211F0DD2099F30E949601D11031C0CE
S11305E025E030E00CC0F901E81BF90BE154FC4FA5
S11305F08081F901E154FC4F80832150310986E068
S113060090E08C1B9D0B281739076CF720E030E035
S113061007C0F901E154FC4F40E340832F5F3F4F93
S113062028173907B4F38FEB93E00E948A0AE70195
S11306302197CC0FDD1FC454DC4F0E94A50579839C
S113064068838FEFE81AF80A92E0E916F1040CF4D3
S1130650D8CE1092AE021092AF021092B002109255
S1130660B10210923B0310923A03C0E0D0E032C0D2
S1130670CE01880F991FFC01EE54FD4F208131817A
S113068040913A0350913B03240F351F30933B03B1
S113069020933A03FC01E454FC4F60817181072EDE
S11306A0000C880B990B0E94DD059B01AC01609145
S11306B0AE027091AF028091B0029091B1020E949B
S11306C039056093AE027093AF028093B0029093A9
S11306D0B10221961C161D065CF600913A03109196
S11306E03B03C090AE02D090AF02E090B002F09015
S11306F0B102C0E0D0E042C0CE01880F991FFC01D6
S1130700EE54FD4F20813181201B310B229FA0012B
S1130710239F500D500D11242091B4023091B50245
S1130720240F351F3093B5022093B402FC01E45426
S1130730FC4F60817181072E000C880B990B0E947D
S1130740DD05A70196010E9438059B01AC010E94BA
S113075069069B01AC016091B6027091B702809169
S1130760B8029091B9020E9439056093B602709361
S1130770B7028093B8029093B90221961C161D0605
S11307800CF0BACF6091B6027091B7028091B802B2
S11307909091B9020E94A5057093C6036093C503A6
S11307A00E9425018091C6038F938091C5038F9386
S11307B08091B5028F938091B4028F938091B1029E
S11307C08F938091B0028F938091AF028F93809129
S11307D0AE028F9380913B038F9380913A038F9362
S11307E082E491E09F938F93CAEBD2E0DF93CF939F
S11307F00E94DE0BCE010E946D010E949A0180913D
S11308003B038F9380913A038F931F9211E01F93C0
S113081080E591E09F938F93DF93CF930E94DE0B4B
S1130820CE010E94C1018091B1028F938091B002E8
S11308308F938091AF028F938091AE028F931F921A
S11308401F9383E791E09F938F93DF93CF930E944D
S1130850DE0B8DB79EB780960FB6F8949EBF0FBE81
S11308608DBFCE010E94C1018091B5028F9380910A
S1130870B4028F931F921F9386E991E09F938F9305
S1130880DF93CF930E94DE0BCE010E94C1018091C1
S1130890C6038F938091C5038F931F921F9389EB97
S11308A091E09F938F93DF93CF930E94DE0BCE0151
S11308B00E94C10187E1EAEDF1E0DE0101900D92B1
S11308C08A95E1F7CE010E94C10188EE93E00E946F
S11308D05A010E949A0188E088BB80E188BB0E948B
S11308E09A010E949A018DB79EB740960FB6F8946C
S11308F09EBF0FBE8DBF02C01092BE0378948EEED1
S113090095E89DBD8CBDFF91EF91DF91CF91BF9193
S1130910AF919F918F917F916F915F914F913F9193
S11309202F911F910F91FF90EF90DF90CF900F9038
S11309300FBE0F901F9018958FEF87BB81BB81E08E
S11309408093BE030E94E80083E390E00E948A0142
S113095080E090E00EC09C01220F331FF901EE5499
S1130960FD4F11821082F901E454FC4F1182108270
S11309700196181619067CF78AE00E9492018DE010
S1130980E1EFF1E0AAEBB2E001900D928A95E1F774
S11309908AEB92E00E94A4010E94960102C00E9488
S11309A096015F99FCCF80ED97E00E945A01CAEB53
S11309B0D2E08FE1EEEFF1E0DE0101900D928A9535
S11309C0E1F7CE010E94C1018DE1EDE1F2E0DE012B
S11309D001900D928A95E1F7CE010E94C1011F9208
S11309E011E01F938AE392E09F938F93DF93CF9359
S11309F00E94DE0BCE010E94C1011F921F9388E565
S1130A0092E09F938F93DF93CF930E94DE0BCE01EE
S1130A100E94C1011F921F9384E792E09F938F93DA
S1130A20DF93CF930E94DE0BCE010E94C1011F927F
S1130A301F9382E992E09F938F93DF93CF930E9459
S1130A40DE0BCE010E94C1018FEF88BB85E08EBD15
S1130A508EEE95E89DBD8CBD84E089BF78948DB7FA
S1130A609EB748960FB6F8949EBF0FBE8DBFFFCFBA
S1130A705058BB27AA270E9450050C942F060E94A9
S1130A80210638F00E94280620F039F49F3F19F41B
S1130A9026F40C941E060EF4E095E7FB0C9418065D
S1130AA0E92F0E94400658F3BA17620773078407B8
S1130AB0950720F079F4A6F50C9462060EF4E095FF
S1130AC00B2EBA2FA02D0B01B90190010C01CA0104
S1130AD0A0011124FF27591B99F0593F50F4503EAF
S1130AE068F11A16F040A22F232F342F4427585FA1
S1130AF0F3CF469537952795A795F0405395C9F7B9
S1130B007EF41F16BA0B620B730B840BBAF0915070
S1130B10A1F0FF0FBB1F661F771F881FC2F70EC00F
S1130B20BA0F621F731F841F48F4879577956795E2
S1130B30B795F7959E3F08F0B0CF9395880F08F0CE
S1130B409927EE0F9795879508950E94AC056894B0
S1130B50B1110C94630608950E94480688F09F57CB
S1130B6098F0B92F9927B751B0F0E1F0660F771FCD
S1130B70881F991F1AF0BA95C9F714C0B13091F0C3
S1130B800E946206B1E008950C946206672F782FE4
S1130B908827B85F39F0B93FCCF386957795679588
S1130BA0B395D9F73EF490958095709561957F4FF4
S1130BB08F4F9F4F0895E89409C097FB3EF490959A
S1130BC08095709561957F4F8F4F9F4F9923A9F022
S1130BD0F92F96E9BB279395F695879577956795B1
S1130BE0B795F111F8CFFAF4BB0F11F460FF1BC0F5
S1130BF06F5F7F4F8F4F9F4F16C0882311F096E988
S1130C0011C0772321F09EE8872F762F05C0662335
S1130C1071F096E8862F70E060E02AF09A95660FEE
S1130C20771F881FDAF7880F9695879597F90895A7
S1130C3097F99F6780E870E060E008959FEF80EC8B
S1130C40089500240A94161617061806090608952E
S1130C5000240A9412161306140605060895092E94
S1130C600394000C11F4882352F0BB0F40F4BF2B03
S1130C7011F460FF04C06F5F7F4F8F4F9F4F089543
S1130C8057FD9058440F551F59F05F3F71F0479539
S1130C90880F97FB991F61F09F3F79F0879508951E
S1130CA0121613061406551FF2CF4695F1DF08C03D
S1130CB0161617061806991FF1CF8695710561055A
S1130CC008940895E894BB2766277727CB0197F902
S1130CD008950E947C060C942F060E94210638F089
S1130CE00E94280620F0952311F00C9418060C9409
S1130CF01E0611240C9463060E94400670F3959F0F
S1130D00C1F3950F50E0551F629FF001729FBB27FE
S1130D10F00DB11D639FAA27F00DB11DAA1F649F9A
S1130D206627B00DA11D661F829F2227B00DA11D4D
S1130D30621F739FB00DA11D621F839FA00D611DD3
S1130D40221F749F3327A00D611D231F849F600DF4
S1130D50211D822F762F6A2F11249F5750409AF01D
S1130D60F1F088234AF0EE0FFF1FBB1F661F771FA9
S1130D70881F91505040A9F79E3F510580F00C9474
S1130D8018060C9463065F3FE4F3983ED4F386950B
S1130D9077956795B795F795E7959F5FC1F7FE2B14
S1130DA0880F911D9695879597F90895A0E1B0E075
S1130DB0ECEDF6E00C94530A7C011B016A01FC0182
S1130DC017821682838181FF44C39E012F5F3F4FA8
S1130DD03901F7019381F10193FD859193FF81918D
S1130DE01F01882309F431C3853239F493FD8591B9
S1130DF093FF81911F01853239F4B70190E00E947D
S1130E00A20B56016501E5CF10E0512C912CFFE1B6
S1130E10F915D8F08B3279F038F4803279F08332D6
S1130E20A1F4F92DF0612EC08D3261F0803369F4A4
S1130E30292D21602DC0392D3260932E892D846097
S1130E40982E2AC0E92DE86015C097FC2DC020ED2E
S1130E50280F2A3088F496FE06C03AE0139F200D2E
S1130E601124122F19C08AE0589E200D1124522EED
S1130E70E92DE0629E2E10C08E3231F496FCE5C25C
S1130E80F92DF0649F2E08C08C3621F4292D20689A
S1130E90922E02C0883641F4F10193FD859193FFAF
S1130EA081911F018111B3CF9BEB980F933020F4F4
S1130EB0992D9061805E07C09BE9980F933008F0EC
S1130EC066C1992D9F7E96FF16E09F73992E8536F5
S1130ED019F49064992E08C0863621F4392F3068AD
S1130EE0932E02C01111115097FE07C01C3350F409
S1130EF044244394410E27E00BC0183038F027E017
S1130F0017E005C027E09CE3492E02C0212F412CA5
S1130F10560184E0A80EB11CF601608171818281C2
S1130F209381042DA3010E94AC0A6C01F981FC8712
S1130F30F0FF02C0F3FF06C091FC06C092FE06C09B
S1130F4000E205C00DE203C00BE201C000E08C85A5
S1130F508C7019F001115AC29BC297FE10C04C0C40
S1130F60FC85F4FF04C08A81813309F44A94141483
S1130F7074F528E0241578F588E0482E2CC096FCFA
S1130F802AC0812F90E08C159D059CF03CEFC31680
S1130F903FEFD30674F0892D8068982E0AC0E2E0F2
S1130FA0F0E0EC0FFD1FE10FF11D8081803319F497
S1130FB011501111F4CF97FE0EC044244394410EF6
S1130FC0812F90E0C816D9062CF41C1904C04424BF
S1130FD0439401C010E097FE06C01C141D0434F4B1
S1130FE0C601019605C085E090E002C081E090E072
S1130FF001110196112331F0212F30E02F5F3F4F73
S1131000820F931F252D30E08217930714F4581A8A
S113101001C0512C892D897049F4552039F0B7014C
S113102080E290E00E94A20B5A94F7CF002329F0AB
S1131030B701802F90E00E94A20B93FC09C05520B9
S113104039F0B70180E390E00E94A20B5A94F7CFE5
S113105097FE4CC04601D7FE02C0812C912CC601DC
S113106088199909F301E80FF91FFE87ED879601A6
S113107024193109388B2F87012F10E01195019520
S113108011093FEF8316930629F4B7018EE290E02D
S11310900E94A20BC814D9044CF08F859889881536
S11310A0990524F4ED85FE85818101C080E3F1E09A
S11310B08F1A91082D853E852F5F3F4F3E872D87E0
S11310C0801691062CF0B70190E00E94A20BD9CFB4
S11310D0C814D90441F49A81963320F4953319F451
S11310E03C8534FF81E3B70190E04EC08A818133AF
S11310F019F09C859F7E9C87B70190E00E94A20B0B
S1131100111105C094FC18C085E690E017C0B70122
S11311108EE290E00E94A20B1E5F82E001E0080FC5
S1131120F301E80FF11D8081B70190E00E94A20B4A
S1131130802F0113F3CFE6CF85E490E0B7010E943E
S1131140A20BD7FC06C0C114D10441F4EC85E4FF22
S113115005C0D194C194D1088DE201C08BE2B701DE
S113116090E00E94A20B80E32AE0C216D1042CF086
S11311708F5FFAE0CF1AD108F7CFB70190E00E9451
S1131180A20BB701C601C0960E94A20B54C18336BC
S113119031F0833779F0833509F056C020C0560109
S11311A032E0A30EB11CF6018081898301E010E0D6
S11311B0630112C05601F2E0AF0EB11CF601C0800B
S11311C0D18096FE03C0612F70E002C06FEF7FEF05
S11311D0C6010E948F0B8C01F92DFF7714C05601B4
S11311E022E0A20EB11CF601C080D18096FE03C09D
S11311F0612F70E002C06FEF7FEFC6010E94840B85
S11312008C01F92DF0689F2EF3FD1AC0852D90E016
S113121008171907A8F4B70180E290E00E94A20B16
S11312205A94F4CFF60197FC859197FE81916F0152
S1131230B70190E00E94A20B51105A940150110979
S11312400115110579F7F7C0843611F0893661F577
S1131250560197FE09C024E0A20EB11CF60160817C
S11312607181828193810AC0F2E0AF0EB11CF60154
S113127060817181072E000C880B990BF92DFF7684
S11312809F2E97FF09C090958095709561957F4F2B
S11312908F4F9F4FF0689F2E2AE030E0A3010E94F9
S11312A0000CC82EC6183FC0092D853721F40F7EC7
S11312B02AE030E01DC0097F8F3691F018F488359C
S11312C059F0C3C0803719F0883711F0BEC00061EF
S11312D004FF09C0046007C094FE08C0066006C08D
S11312E028E030E005C020E130E002C020E132E037
S11312F0560107FF09C084E0A80EB11CF601608105
S113130071818281938108C0F2E0AF0EB11CF601B5
S11313106081718180E090E0A3010E94000CC82EDE
S1131320C6180F77902E96FE0BC0092D0E7FC1169E
S113133050F494FE0AC092FC08C0092D0E7E05C02C
S1131340DC2C092D03C0DC2C01C0D12E04FF0DC000
S1131350FE01EC0DF11D8081803311F4097E09C07A
S113136002FF06C0D394D39404C0802F867809F07A
S1131370D39403FD11C000FF06C01C2DD51480F4C6
S1131380150D1D190DC0D51458F4B70180E290E075
S11313900E94A20BD394F7CFD51410F45D1801C0AA
S11313A0512C04FF10C0B70180E390E00E94A20B0F
S11313B002FF17C001FD03C088E790E002C088E582
S11313C090E0B7010CC0802F867859F001FF02C06D
S11313D08BE201C080E207FD8DE2B70190E00E943C
S11313E0A20BC11638F4B70180E390E00E94A20B6F
S11313F01150F7CFCA94F301EC0DF11D8081B701B0
S113140090E00E94A20BC110F5CF15C0F4E0F515D1
S113141060F584E0581A93FE1FC0011127C02C8583
S113142023FF2AC004E510E0392D3071932EF80112
S11314308491811124C0552009F4E4CCB70180E2E1
S113144090E00E94A20B5A94F6CFF701868197810F
S113145026C08FEF9FEF23C0B70180E290E00E9487
S1131460A20B5A945110F8CFD8CF512CB701802F2A
S113147090E00E94A20BD3CF08E510E0D5CF9110E5
S11314808052B70190E00E94A20B0F5F1F4FCFCF95
S113149023E0251510F483E0BDCF512CC0CF609616
S11314A0E2E10C946F0A2F923F924F925F926F92F7
S11314B07F928F929F92AF92BF92CF92DF92EF92E0
S11314C0FF920F931F93CF93DF93CDB7DEB7CA1B61
S11314D0DB0B0FB6F894DEBF0FBECDBF09942A888C
S11314E0398848885F846E847D848C849B84AA8434
S11314F0B984C884DF80EE80FD800C811B81AA81C1
S1131500B981CE0FD11D0FB6F894DEBF0FBECDBF8B
S1131510ED010895662777270C945E0CFC0188275B
S11315209927E89421912032E9F3293010F02E30E4
S1131530C8F32B3241F02D3239F4689404C00E9470
S11315409A0B820F911D219120532A30C0F31EF46F
S1131550909581959F4F0895283008F027E0332710
S1131560DA01990F311D87FD9160009661057105BF
S113157039F432602E5F3D9330E32A95E1F7089504
S11315809F3F30F080387105610509F03C5F3C5F96
S11315903D93913008F08068911DDF93CF931F93A2
S11315A00F93FF92EF92192F987F9695E92F9695B6
S11315B09695E90FFF27EA54FF4F99273327EE2426
S11315C0FF24A701E70105900894079428F4360F37
S11315D0E71EF81E491F511D660F771F881F991FAC
S11315E00694A1F70590079428F4E70EF81E491F06
S11315F0561FC11D770F881F991F661F0694A1F7F8
S11316000590079428F4F80E491F561FC71FD11DD3
S1131610880F991F661F771F0694A1F705900794FA
S113162020F4490F561FC71FD81F990F661F771F35
S1131630881F0694A9F784911095177041F0D695E8
S1131640C79557954795F794E7941A95C1F7ECE534
S1131650F0E06894159015913591659195910590F8
S11316607FE27395E118F10A430B560BC90BD009BD
S1131670C0F7E10CF11E431F561FC91FD01D7EF495
S1131680703311F48A95E6CFE894015030F0080FD6
S11316900AF40027021708F4202F2395022F7A3327
S11316A028F079E37D932A95E9F710C07D932A9574
S11316B089F6069497956795379517951794E118C9
S11316C0F10A430B560BC90BD00998F023957E9170
S11316D073957A3308F070E37C932013B8F77E9106
S11316E070617D9330F0839571E37D9370E32A9567
S11316F0E1F71124EF90FF900F911F91CF91DF91AB
S1131700992787FD90950895FC01059061507040DC
S11317100110D8F7809590958E0F9F1F0895FC01B6
S11317206150704001900110D8F7809590958E0F0C
S11317309F1F08957AE0979F902D879F802D910D8C
S1131740112408950F931F93CF93DF93FB012381FB
S113175021FD03C08FEF9FEF2CC022FF16C04681EE
S11317605781248135814217530744F4A081B18104
S11317709D012F5F3F4F318320838C9326813781D6
S11317802F5F3F4F3783268314C08B01EC01FB018D
S11317900084F185E02D0995892BE1F6D801169690
S11317A08D919C911797019617969C938E931697FB
S11317B0CE01DF91CF911F910F910895AEE0B0E07B
S11317C0E4EEFBE00C94610A0D891E8986E08C83AB
S11317D01A8309838FEF9FE79E838D83AE01475E53
S11317E05F4F6F89788DCE0101960E94D606EF81F6
S11317F0F885E00FF11F10822E96E4E00C947D0A28
S1131800FA01AA27283051F1203181F1E8946F932D
S11318106E7F6E5F7F4F8F4F9F4FAF4FB1E03ED0D3
S1131820B4E03CD0670F781F891F9A1FA11D680F71
S1131830791F8A1F911DA11D6A0F711D811D911DA4
S1131840A11D20D009F468943F912AE0269F112419
S11318503019305D3193DEF6CF010895462F47707D
S1131860405D4193B3E00FD0C9F7F6CF462F4F70D8
S1131870405D4A3318F0495D31FD4052419302D036
S1131880A9F7EACFB4E0A6959795879577956795DC
S1131890BA95C9F700976105710508959B01AC01DC
S11318A00A2E06945795479537952795BA95C9F703
S11318B0620F731F841F951FA01D0895A0E0B0E060
S11318C0E4E6FCE00C94590AEC016B016115710526
S11318D019F0FB01918380837E01FFEFEF1AFF0A69
S11318E00881802F90E00E94AC0D892B11F0E70154
S11318F0F3CF0D3239F47E0182E0E80EF11C098148
S113190011E008C00B3229F47E0192E0E90EF11CCB
S1131910098110E0E701219743E050E06EE571E0B2
S1131920CE010E94B50D892BC1F4239645E050E009
S113193069E571E0CE010E94B50D892B09F4259665
S1131940C114D10419F0F601D183C0831111F6C07A
S113195060E070E080E89FE7FAC043E050E066E5AD
S113196071E0CE010E94B50D892B59F4C114D10444
S113197009F4E9C0F2E0EF0EF11CF601F182E08215
S1131980E2C020E030E0A901C0E0D0E0F70180ED42
S1131990A82EA00E89E08A1530F1912F9260B92EFD
S11319A0812F887012FF04C0811124C0219622C0A7
S11319B081112197A5E0B0E00E94F90DDC01CB0173
S11319C0880F991FAA1FBB1F9C01AD012A0D311D51
S11319D0411D511D283989E93807480789E158070D
S11319E048F0166006C09EEFA9120AC013FD40C05D
S11319F01860B12E8FEFE81AF80A00811B2DC6CFAC
S1131A00802F8F7D8534A1F580818D3211F4106192
S1131A1006C08B3221F0319661E070E004C0818110
S1131A20329662E070E080538A3018F0E61BF70BC0
S1131A301FC060E070E060389CE079075CF4DB0173
S1131A40AA0FBB1FAA0FBB1F6A0F7B1F660F771F4E
S1131A50680F711D3196DF0111978C9180538A3084
S1131A6050F314FF03C0719561957109C60FD71F18
S1131A7011FF08C0C114D10429F0CF010197F60168
S1131A8091838083CA01B9010E94DB05212F237051
S1131A90233019F04B015C0106C04B015C01B7FA1D
S1131AA0B094B7F8B09420E030E0A901C501B401C6
S1131AB00E94CD0D882309F43EC0D7FF06C0D195FE
S1131AC0C195D10905E711E002C00DE811E06801F4
S1131AD0F8E1CF1AD10890E2E92EF12CCE15DF05FA
S1131AE074F0F8012591359145915491C501B401E3
S1131AF00E9469064B015C01CE19DF09EFCF045047
S1131B001109F594E7940C151D0541F78A2D880FEA
S1131B108B2D881F8F3F49F020E030E0A901C501DB
S1131B20B4010E94CD0D811106C082E290E0909331
S1131B30C8038093C703C501B40109C060E070E025
S1131B4080E89FEF04C060E070E080EC9FE7CDB7D1
S1131B50DEB7ECE00C94750A91110C94F60D80320A
S1131B6019F089508550C8F70895FB01DC014150F4
S1131B70504088F08D9181341CF08B350CF4805EDC
S1131B80659161341CF06B350CF4605E861B611149
S1131B9071F3990B0895881BFCCF0E94D20D08F4B1
S1131BA081E00895990F0008550FAA0BE0E8FEEFB5
S1131BB016161706E807F907C0F012161306E4070D
S1131BC0F50798F0621B730B840B950B39F40A2606
S1131BD061F0232B242B252B21F408950A2609F4E4
S1131BE0A140A6958FEF811D811D0895992788270F
S1131BF008950E94040EA59F900DB49F900DA49F7C
S1131C00800D911D11240895A29FB001B39FC001BE
S1131C10A39F700D811D1124911DB29F700D811D14
S10D1C201124911D0895F894FFCFDC
S1131C2A4553503A737369643A2253656E735F423B
S1131C3A6F6172642564220A004553503A706173D5
S1131C4A73776F72643A22617765736F6D65506159
S1131C5A7373776F7264220A004553503A73656E40
S1131C6A736F7256616C75653A224D6F6973745F4E
S1131C7A53656E736F72225B726571756573745DF9
S1131C8A0A004553503A73656E736F7256616C75E8
S1131C9A653A22546D705F53656E736F72225B727C
S1131CAA6571756573745D0A004553503A636F6EC6
S1131CBA6E6563740A004553503A636C69656E74C1
S1131CCA5472616E736D69740A004553503A6765BC
S1131CDA7456616C75653A224D6F6973745F536506
S1131CEA6E736F72220A004553503A6765745661DF
S1131CFA6C75653A22546D705F53656E736F722208
S1131D0A0A00256420252E316620256420256400D6
S1131D1A4553503A73656E736F7256616C75653AC2
S1131D2A224D6F6973745F6176672564225B25644B
S1131D3A5D0A004553503A73656E736F7256616C4F
S1131D4A75653A22546D705F6176672564225B2556
S1131D5A2E31665D0A004553503A73656E736F728D
S1131D6A56616C75653A224D6F6973745F76617258
S1131D7A2564225B25645D0A004553503A73656EF7
S1131D8A736F7256616C75653A22546D705F766131
S1131D9A722564225B25645D0A004553503A7373C5
S1131DAA69643A224D61696E5F426F617264220A04
S1131DBA004553503A726573746172740A0045534C
S1131DCA503A61646453656E736F723A20224D6FA0
S1131DDA6973745F53656E736F72220A00455350B8
S1131DEA3A61646453656E736F723A2022546D705B
S1131DFA5F53656E736F72220A004553503A6164E9
S1131E0A6453656E736F723A20224D6F6973745FFF
S1131E1A6176672564220A004553503A6164645323
S1131E2A656E736F723A2022546D705F617667250E
S1131E3A64220A004553503A61646453656E736FB1
S1131E4A723A20224D6F6973745F76617225642237
S1131E5A0A004553503A61646453656E736F723A6B
S1111E6A2022546D705F7661722564220A0096
S9030000FC
